:100000000C9446000C9465000C9465000C946500FB
:100010000C9465000C9465000C9465000C946500CC
:100020000C9465000C9465000C9465000C946500BC
:100030000C9465000C94F4000C9465000C9465001D
:100040000C9465000C9465000C9465000C9465009C
:100050000C9465000C9465000C9465000C9465008C
:100060000C9465000C9465000C9465000C9465007C
:100070000C9465000C9465000C9465000C9465006C
:100080000C9465000C9465000C94650011241FBE4F
:10009000CFEFD0E4DEBFCDBF11E0A0E0B1E0ECEAED
:1000A000F4E000E00BBF02C007900D92A831B10749
:1000B000D9F721E0A8E1B1E001C01D92A032B2075A
:1000C000E1F70E9426020C9454020C940000CF9396
:1000D000DF9300D01F92CDB7DEB789837B836A831D
:1000E00089818A3031F48A819B81BC018DE00E9434
:1000F000670080EC90E0FC018081882F90E08072A6
:100100009927892BB1F386EC90E02981FC012083AB
:1001100080E090E00F900F900F90DF91CF910895C5
:10012000CF93DF93CDB7DEB780E290E0FC01808112
:100130008095DF91CF910895CF93DF93CDB7DEB750
:100140000E9490008170DF91CF910895CF93DF934B
:10015000CDB7DEB781E0809319010000DF91CF9128
:100160000895CF93DF93CDB7DEB781E890E0FC012F
:1001700010820000DF91CF910895CF93DF93CDB728
:10018000DEB781E890E02BE0FC01208388E890E076
:100190002DE730E0FC01318320838FE690E022E000
:1001A000FC01208384E890E0FC01118210828091A0
:1001B000130190911401A0911501B0911601809343
:1001C0001A0190931B01A0931C01B0931D018FE5B0
:1001D00090E02FE530E0F90120812068FC012083C8
:1001E0000000DF91CF9108951F920F9200905F0061
:1001F0000F92112400905B000F922F933F934F9327
:100200005F936F937F938F939F93AF93BF93EF937E
:10021000FF93CF93DF93CDB7DEB780911A01909112
:100220001B01A0911C01B0911D010197A109B10909
:1002300080931A0190931B01A0931C01B0931D01A0
:1002400080911A0190911B01A0911C01B0911D0198
:10025000892B8A2B8B2B91F40E94A600809113018D
:1002600090911401A0911501B091160180931A018B
:1002700090931B01A0931C01B0931D010000DF911E
:10028000CF91FF91EF91BF91AF919F918F917F910E
:100290006F915F914F913F912F910F9000925B0072
:1002A0000F9000925F000F901F901895CF93DF93EF
:1002B00000D000D0CDB7DEB769837A838B839C836F
:1002C00089819A81AB81BC81809313019093140141
:1002D000A0931501B0931601809113019091140120
:1002E000A0911501B091160180931A0190931B0102
:1002F000A0931C01B0931D0100000F900F900F9070
:100300000F90DF91CF910895CF93DF93CDB7DEB7F4
:1003100080911E0190911F018230910541F183303F
:10032000910528F4009751F0019779F056C0833079
:10033000910579F1049709F43EC04FC081E090E047
:1003400090931F0180931E0148C00E949C00882347
:1003500039F082E090E090931F0180931E013DC030
:1003600081E090E090931F0180931E0136C00E94AF
:100370009C00882339F082E090E090931F018093E5
:100380001E012BC083E090E090931F0180931E011B
:1003900024C00E949C00882339F084E090E0909370
:1003A0001F0180931E0119C083E090E090931F010C
:1003B00080931E0112C00E949C00882339F084E0C3
:1003C00090E090931F0180931E0106C081E090E0B1
:1003D00090931F0180931E01000080911E01909157
:1003E0001F018230910549F18330910540F5009756
:1003F00019F0019741F026C085E290E0FC011082DF
:10040000109218011FC085E290E020911801222F60
:1004100030E0225F3E4FF9012081FC012083809172
:1004200018018F5F8093180190911801809112013B
:10043000981739F41092180104C0000003C000009E
:1004400001C000000000DF91CF910895CF93DF93AA
:10045000CDB7DEB781E290E0FC01108282E290E04D
:100460002FEFFC01208384E290E02FEFFC0120833A
:1004700085E290E0FC01108210921F0110921E0193
:10048000109218016CE271E080E090E00E94560149
:100490000E94BD000E948401000080911901882300
:0C04A000E1F310921901F6CFF894FFCFA1
:1004AC0000000002000000006700000000000102D4
:0804BC0004020401000000002D
:00000001FF
