:100000000C9456000C9475000C9475000C947500BB
:100010000C9475000C9475000C9475000C9475008C
:100020000C9475000C9475000C9475000C9475007C
:100030000C9475000C940E010C9475000C947500D2
:100040000C9475000C9475000C9475000C9475005C
:100050000C9475000C9475000C9475000C9475004C
:100060000C9475000C9475000C9475000C9475003C
:100070000C9475000C9475000C9475000C9475002C
:100080000C9475000C9475000C947500B801BF01B8
:10009000FE013A027602140250027D02AF02BB0258
:1000A000BE02EE021D03D1020003280311241FBE6D
:1000B000CFEFD0E4DEBFCDBF11E0A0E0B1E0E8EECD
:1000C000F6E000E00BBF02C007900D92A431B1072B
:1000D000D9F721E0A4E1B1E001C01D92AD31B20732
:1000E000E1F70E9434030C9472030C940000CF9348
:1000F000DF9300D01F92CDB7DEB789837B836A83FD
:1001000089818A3031F48A819B81BC018DE00E9413
:10011000770080EC90E0FC018081882F90E0807275
:100120009927892BB1F386EC90E02981FC0120838B
:1001300080E090E00F900F900F90DF91CF910895A5
:10014000CF93DF93CDB7DEB780E290E0FC018081F2
:100150008095DF91CF910895CF93DF93CDB7DEB730
:100160000E94A0008170DF91CF910895CF93DF931B
:10017000CDB7DEB70E94A0008270DF91CF910895C5
:10018000CF93DF93CDB7DEB781E0809316010000F7
:10019000DF91CF910895CF93DF93CDB7DEB781E89C
:1001A00090E0FC0110820000DF91CF910895CF9381
:1001B000DF93CDB7DEB781E890E02BE0FC01208330
:1001C00088E890E02DE730E0FC01318320838FE662
:1001D00090E022E0FC01208384E890E0FC011182A1
:1001E000108280910E0190910F01A0911001B091A9
:1001F00011018093170190931801A0931901B093F6
:100200001A018FE590E02FE530E0F90120812068A8
:10021000FC0120830000DF91CF9108951F920F927F
:1002200000905F000F92112400905B000F922F93BB
:100230003F934F935F936F937F938F939F93AF936E
:10024000BF93EF93FF93CF93DF93CDB7DEB780914A
:10025000170190911801A0911901B0911A0101970D
:10026000A109B1098093170190931801A093190176
:10027000B0931A018091170190911801A091190172
:10028000B0911A01892B8A2B8B2B91F40E94C0000C
:1002900080910E0190910F01A0911001B091110178
:1002A0008093170190931801A0931901B0931A013C
:1002B0000000DF91CF91FF91EF91BF91AF919F919E
:1002C0008F917F916F915F914F913F912F910F90FF
:1002D00000925B000F9000925F000F901F901895A6
:1002E000CF93DF9300D000D0CDB7DEB769837A8398
:1002F0008B839C8389819A81AB81BC8180930E0121
:1003000090930F01A0931001B093110180910E0101
:1003100090910F01A0911001B091110180931701EC
:1003200090931801A0931901B0931A0100000F9047
:100330000F900F900F90DF91CF910895CF93DF939F
:10034000CDB7DEB780911B0190911C01CC01A0E0DC
:10035000B0E040E050E027E030E0841B950B281728
:10036000390708F4E0C08A5B9F4FFC010C946903D5
:1003700081E090E090931C0180931B01DAC00E9401
:10038000AC00882359F40E94B600882339F481E038
:1003900090E090931C0180931B012FC00E94AC0041
:1003A000882359F00E94B600882339F482E090E057
:1003B00090931C0180931B0120C00E94AC008823F5
:1003C00059F40E94B600882339F083E090E09093BE
:1003D0001C0180931B0111C00E94AC00882309F40A
:1003E000A7C00E94B600882309F4A2C084E090E070
:1003F00090931C0180931B019BC09AC00E94AC008B
:10040000882359F00E94B600882339F084E090E0F8
:1004100090931C0180931B018CC085E090E0909329
:100420001C0180931B0185C00E94AC00882359F0F9
:100430000E94B600882339F084E090E090931C017C
:1004400080931B0116C00E94AC00882359F00E94C3
:10045000B600882339F485E090E090931C018093E6
:100460001B0107C081E090E090931C0180931B0169
:1004700060C05FC00E94AC00882359F00E94B600A3
:10048000882339F084E090E090931C0180931B0155
:1004900050C086E090E090931C0180931B0149C0FE
:1004A0000E94AC00882359F00E94B600882339F0DE
:1004B00084E090E090931C0180931B0116C00E9481
:1004C000AC00882359F40E94B600882339F086E0F6
:1004D00090E090931C0180931B0107C081E090E0A5
:1004E00090931C0180931B0124C023C087E090E0FF
:1004F00090931C0180931B011CC00E94AC008823B8
:1005000059F00E94B600882339F087E090E090937C
:100510001C0180931B010DC081E090E090931C01B1
:1005200080931B0106C010921C0110921B0101C098
:10053000000080911B0190911C01CC01A0E0B0E073
:1005400040E050E027E030E0841B950B2817390786
:1005500008F481C0825B9F4FFC010C9469031092E8
:10056000150187E08093140188E290E02091140146
:10057000FC01208375C01092150172C01092150104
:1005800080911401893008F068C0809114018F5F58
:100590008093140188E290E020911401FC012083F3
:1005A0005CC0909115018AE0981790F08091140139
:1005B000893058F4809114018F5F8093140188E290
:1005C00090E020911401FC0120831092150148C095
:1005D000809115018F5F8093150142C01092150123
:1005E000809114018823D9F1809114018150809366
:1005F000140188E290E020911401FC0120832FC0B7
:10060000909115018AE0981790F080911401882349
:1006100059F08091140181508093140188E290E098
:1006200020911401FC0120831092150119C08091C2
:1006300015018F5F8093150113C01092140188E299
:1006400090E020911401FC0120831092150108C054
:100650001092150105C0000003C0000001C0000099
:100660000000DF91CF910895CF93DF93CDB7DEB730
:1006700081E290E0FC01108282E290E02FEFFC0129
:10068000208387E290E02FEFFC01208388E290E056
:10069000FC01108210921C0110921B0187E08093D4
:1006A000140188E290E020911401FC01208364E6AB
:1006B00070E080E090E00E9470010E94D7000E94EC
:1006C0009E010000809116018823E1F3109216012B
:1006D000F6CFEE0FFF1F0024001C0BBE0790F69113
:0806E000E02D0994F894FFCF0E
:1006E8000000000200000000770000000000010088
:0406F80000000A00F4
:00000001FF
