:100000000C9446000C9465000C9465000C946500FB
:100010000C9465000C9465000C9465000C946500CC
:100020000C9465000C9465000C9465000C946500BC
:100030000C9465000C94EA000C9465000C94650027
:100040000C9465000C9465000C9465000C9465009C
:100050000C9465000C9465000C9465000C9465008C
:100060000C9465000C9465000C9465000C9465007C
:100070000C9465000C9465000C9465000C9465006C
:100080000C9465000C9465000C94650011241FBE4F
:10009000CFEFD0E4DEBFCDBF11E0A0E0B1E0E0EEF5
:1000A000F3E000E00BBF02C007900D92A631B1074C
:1000B000D9F721E0A6E1B1E001C01D92AE31B2074F
:1000C000E1F70E94C9010C94EE010C940000CF935B
:1000D000DF9300D01F92CDB7DEB789837B836A831D
:1000E00089818A3031F48A819B81BC018DE00E9434
:1000F000670080EC90E0FC018081882F90E08072A6
:100100009927892BB1F386EC90E02981FC012083AB
:1001100080E090E00F900F900F90DF91CF910895C5
:10012000CF93DF93CDB7DEB780E290E0FC01808112
:100130008095DF91CF910895CF93DF93CDB7DEB750
:1001400081E0809316010000DF91CF910895CF9355
:10015000DF93CDB7DEB781E890E0FC0110820000AC
:10016000DF91CF910895CF93DF93CDB7DEB781E8CC
:1001700090E02BE0FC01208388E890E02DE730E060
:10018000FC01318320838FE690E022E0FC01208394
:1001900084E890E0FC011182108280910E01909120
:1001A0000F01A0911001B09111018093170190935C
:1001B0001801A0931901B0931A018FE590E02FE583
:1001C00030E0F90120812068FC0120830000DF91EC
:1001D000CF9108951F920F9200905F000F9211240B
:1001E00000905B000F922F933F934F935F936F9319
:1001F0007F938F939F93AF93BF93EF93FF93CF938F
:10020000DF93CDB7DEB78091170190911801A091CF
:100210001901B0911A010197A109B1098093170141
:1002200090931801A0931901B0931A0180911701BE
:1002300090911801A0911901B0911A01892B8A2B74
:100240008B2B91F40E949C0080910E0190910F01E4
:10025000A0911001B09111018093170190931801A2
:10026000A0931901B0931A010000DF91CF91FF9183
:10027000EF91BF91AF919F918F917F916F915F911E
:100280004F913F912F910F9000925B000F90009241
:100290005F000F901F901895CF93DF9300D000D090
:1002A000CDB7DEB769837A838B839C8389819A81FA
:1002B000AB81BC8180930E0190930F01A09310013C
:1002C000B093110180910E0190910F01A091100146
:1002D000B09111018093170190931801A093190117
:1002E000B0931A0100000F900F900F900F90DF91C4
:1002F000CF910895CF93DF93CDB7DEB780911C01E6
:1003000090911D01009719F0019741F00EC081E016
:1003100090E090931D0180931C0107C081E090E064
:1003200090931D0180931C01000080911C0190910D
:100330001D01009719F0019741F027C085E290E078
:10034000FC01108210921B0120C090911B01809132
:1003500015019817C8F485E290E020911B01222F27
:1003600030E02E5E3E4FF9012081FC012083809118
:100370001B018F5F80931B0190911B0180911501E0
:10038000981711F410921B0100000000DF91CF912B
:100390000895CF93DF93CDB7DEB784E290E02FEFDF
:1003A000FC01208385E290E0FC01108210921D0187
:1003B00010921C0110921B0168EE73E080E090E047
:1003C0000E944C010E94B3000E947A0100008091BB
:1003D00016018823E1F310921601F6CFF894FFCFAF
:1003E00000000002000000006700000000000100A3
:0603F000000001020403FD
:00000001FF
